{
  "contractName": "Presale",
  "abi": [
    {
      "inputs": [
        {
          "internalType": "contract IERC20",
          "name": "_satm",
          "type": "address"
        },
        {
          "internalType": "address",
          "name": "_masterWallet",
          "type": "address"
        }
      ],
      "stateMutability": "nonpayable",
      "type": "constructor"
    },
    {
      "anonymous": false,
      "inputs": [
        {
          "indexed": true,
          "internalType": "address",
          "name": "user",
          "type": "address"
        },
        {
          "indexed": false,
          "internalType": "uint256",
          "name": "amount",
          "type": "uint256"
        }
      ],
      "name": "Deposited",
      "type": "event"
    },
    {
      "anonymous": false,
      "inputs": [
        {
          "indexed": true,
          "internalType": "address",
          "name": "previousOwner",
          "type": "address"
        },
        {
          "indexed": true,
          "internalType": "address",
          "name": "newOwner",
          "type": "address"
        }
      ],
      "name": "OwnershipTransferred",
      "type": "event"
    },
    {
      "anonymous": false,
      "inputs": [
        {
          "indexed": false,
          "internalType": "bool",
          "name": "enabled",
          "type": "bool"
        }
      ],
      "name": "PresaleEnabledUpdated",
      "type": "event"
    },
    {
      "inputs": [],
      "name": "depositRate",
      "outputs": [
        {
          "internalType": "uint256",
          "name": "",
          "type": "uint256"
        }
      ],
      "stateMutability": "view",
      "type": "function"
    },
    {
      "inputs": [
        {
          "internalType": "address",
          "name": "",
          "type": "address"
        }
      ],
      "name": "deposits",
      "outputs": [
        {
          "internalType": "uint256",
          "name": "",
          "type": "uint256"
        }
      ],
      "stateMutability": "view",
      "type": "function"
    },
    {
      "inputs": [
        {
          "internalType": "uint256",
          "name": "",
          "type": "uint256"
        }
      ],
      "name": "investors",
      "outputs": [
        {
          "internalType": "address",
          "name": "",
          "type": "address"
        }
      ],
      "stateMutability": "view",
      "type": "function"
    },
    {
      "inputs": [],
      "name": "masterWallet",
      "outputs": [
        {
          "internalType": "address",
          "name": "",
          "type": "address"
        }
      ],
      "stateMutability": "view",
      "type": "function"
    },
    {
      "inputs": [],
      "name": "owner",
      "outputs": [
        {
          "internalType": "address",
          "name": "",
          "type": "address"
        }
      ],
      "stateMutability": "view",
      "type": "function"
    },
    {
      "inputs": [],
      "name": "presaleEnabled",
      "outputs": [
        {
          "internalType": "bool",
          "name": "",
          "type": "bool"
        }
      ],
      "stateMutability": "view",
      "type": "function"
    },
    {
      "inputs": [],
      "name": "renounceOwnership",
      "outputs": [],
      "stateMutability": "nonpayable",
      "type": "function"
    },
    {
      "inputs": [],
      "name": "satm",
      "outputs": [
        {
          "internalType": "contract IERC20",
          "name": "",
          "type": "address"
        }
      ],
      "stateMutability": "view",
      "type": "function"
    },
    {
      "inputs": [],
      "name": "totalDepositedEthBalance",
      "outputs": [
        {
          "internalType": "uint256",
          "name": "",
          "type": "uint256"
        }
      ],
      "stateMutability": "view",
      "type": "function"
    },
    {
      "inputs": [
        {
          "internalType": "address",
          "name": "newOwner",
          "type": "address"
        }
      ],
      "name": "transferOwnership",
      "outputs": [],
      "stateMutability": "nonpayable",
      "type": "function"
    },
    {
      "inputs": [],
      "name": "depositedUserCount",
      "outputs": [
        {
          "internalType": "uint256",
          "name": "",
          "type": "uint256"
        }
      ],
      "stateMutability": "view",
      "type": "function"
    },
    {
      "inputs": [
        {
          "internalType": "uint256",
          "name": "rate",
          "type": "uint256"
        }
      ],
      "name": "updatePresaleRate",
      "outputs": [],
      "stateMutability": "nonpayable",
      "type": "function"
    },
    {
      "inputs": [
        {
          "internalType": "bool",
          "name": "_enabled",
          "type": "bool"
        }
      ],
      "name": "setPresaleEnabled",
      "outputs": [],
      "stateMutability": "nonpayable",
      "type": "function"
    },
    {
      "inputs": [],
      "name": "deposit",
      "outputs": [],
      "stateMutability": "payable",
      "type": "function"
    },
    {
      "inputs": [
        {
          "internalType": "contract IERC20",
          "name": "_satm",
          "type": "address"
        }
      ],
      "name": "updateSatmToken",
      "outputs": [],
      "stateMutability": "nonpayable",
      "type": "function"
    },
    {
      "inputs": [
        {
          "internalType": "address",
          "name": "_newWalletAddress",
          "type": "address"
        }
      ],
      "name": "updateMasterWalletAddress",
      "outputs": [],
      "stateMutability": "nonpayable",
      "type": "function"
    }
  ],
  "bytecode": "0x608060405260206007556008805460ff1916905534801561001f57600080fd5b5060405161102038038061102083398101604081905261003e916101a6565b61004733610156565b600180556001600160a01b0382166100b65760405162461bcd60e51b815260206004820152602760248201527f5341544d20616464726573732073686f756c64206e6f74206265207a65726f206044820152666164647265737360c81b60648201526084015b60405180910390fd5b6001600160a01b0381166101255760405162461bcd60e51b815260206004820152603060248201527f4d61737465722077616c6c657420616464726573732073686f756c64206e6f7460448201526f206265207a65726f206164647265737360801b60648201526084016100ad565b600280546001600160a01b039384166001600160a01b031991821617909155600580549290931691161790556101f7565b600080546001600160a01b038381166001600160a01b0319831681178455604051919092169283917f8be0079c531659141344cd1fd0a4f28419497f9722a3daafe3b4186f6b6457e09190a35050565b600080604083850312156101b8578182fd5b82516101c3816101df565b60208401519092506101d4816101df565b809150509250929050565b6001600160a01b03811681146101f457600080fd5b50565b610e1a806102066000396000f3fe6080604052600436106100f25760003560e01c80638da5cb5b1161008a578063f2fde38b11610059578063f2fde38b14610266578063f5dd851414610286578063fc0d0117146102a6578063fc7e286d146102c6576100f2565b80638da5cb5b1461020a578063c10225b814610228578063d0e30db014610248578063dfc7a6a814610250576100f2565b8063715018a6116100c6578063715018a6146101a05780637777df7e146101b55780637e74a1ed146101d45780638495292c146101ea576100f2565b8062dc9439146100f7578063143b237f146101195780633feb5f2b14610148578063610a287e14610180575b600080fd5b34801561010357600080fd5b50610117610112366004610c38565b6102f3565b005b34801561012557600080fd5b506008546101339060ff1681565b60405190151581526020015b60405180910390f35b34801561015457600080fd5b50610168610163366004610c8c565b6103b4565b6040516001600160a01b03909116815260200161013f565b34801561018c57600080fd5b50600254610168906001600160a01b031681565b3480156101ac57600080fd5b506101176103de565b3480156101c157600080fd5b506004545b60405190815260200161013f565b3480156101e057600080fd5b506101c660075481565b3480156101f657600080fd5b50610117610205366004610c8c565b610414565b34801561021657600080fd5b506000546001600160a01b0316610168565b34801561023457600080fd5b50610117610243366004610c54565b6104a2565b610117610513565b34801561025c57600080fd5b506101c660065481565b34801561027257600080fd5b50610117610281366004610c38565b6107c4565b34801561029257600080fd5b506101176102a1366004610c38565b61085f565b3480156102b257600080fd5b50600554610168906001600160a01b031681565b3480156102d257600080fd5b506101c66102e1366004610c38565b60036020526000908152604090205481565b6000546001600160a01b031633146103265760405162461bcd60e51b815260040161031d90610cf3565b60405180910390fd5b6001600160a01b0381166103925760405162461bcd60e51b815260206004820152602d60248201527f5341544d20746f6b656e20616464726573732073686f756c64206e6f7420626560448201526c207a65726f206164647265737360981b606482015260840161031d565b600280546001600160a01b0319166001600160a01b0392909216919091179055565b600481815481106103c457600080fd5b6000918252602090912001546001600160a01b0316905081565b6000546001600160a01b031633146104085760405162461bcd60e51b815260040161031d90610cf3565b610412600061091a565b565b6000546001600160a01b0316331461043e5760405162461bcd60e51b815260040161031d90610cf3565b6000811161049d5760405162461bcd60e51b815260206004820152602660248201527f55706461746553776170526174653a2052617465206973206c657373207468616044820152656e205a65726f60d01b606482015260840161031d565b600755565b6000546001600160a01b031633146104cc5760405162461bcd60e51b815260040161031d90610cf3565b6008805460ff19168215159081179091556040519081527f59965f8a2f079119e2e6192e8168d1d5d9776e7ea2ef765193cf18c6cf43b1429060200160405180910390a150565b600260015414156105665760405162461bcd60e51b815260206004820152601f60248201527f5265656e7472616e637947756172643a207265656e7472616e742063616c6c00604482015260640161031d565b600260015534806105b95760405162461bcd60e51b815260206004820152601e60248201527f457468657220416d6f756e74206973206c657373207468616e207a65726f0000604482015260640161031d565b60085460ff1615156001146106105760405162461bcd60e51b815260206004820152601860248201527f50726573616c65206973206e6f7420617661696c61626c650000000000000000604482015260640161031d565b60075460009061062d9061062784620186a061096a565b9061097d565b6005546040519192506000916001600160a01b039091169084908381818185875af1925050503d806000811461067f576040519150601f19603f3d011682016040523d82523d6000602084013e610684565b606091505b50509050806106cc5760405162461bcd60e51b81526020600482015260146024820152732330b4b632b2103a379039b2b7321022ba3432b960611b604482015260640161031d565b6005546002546106ea916001600160a01b0391821691163385610989565b826006546106f89190610d28565b6006553360009081526003602052604090205461075257600480546001810182556000919091527f8a35acfbc15ff81a39ae7d344fd709f28e8600b4aa8c65c6b64bfe7fe36bd19b0180546001600160a01b031916331790555b3360009081526003602052604090205461076d908490610d28565b33600081815260036020526040908190209290925590517f2da466a7b24304f47e87fa2e1e5a81b9831ce54fec19055ce277ca2f39ba42c4906107b39086815260200190565b60405180910390a250506001805550565b6000546001600160a01b031633146107ee5760405162461bcd60e51b815260040161031d90610cf3565b6001600160a01b0381166108535760405162461bcd60e51b815260206004820152602660248201527f4f776e61626c653a206e6577206f776e657220697320746865207a65726f206160448201526564647265737360d01b606482015260840161031d565b61085c8161091a565b50565b6000546001600160a01b031633146108895760405162461bcd60e51b815260040161031d90610cf3565b6001600160a01b0381166108f85760405162461bcd60e51b815260206004820152603060248201527f4d61737465722057616c6c657420616464726573732073686f756c64206e6f7460448201526f206265207a65726f206164647265737360801b606482015260840161031d565b600580546001600160a01b0319166001600160a01b0392909216919091179055565b600080546001600160a01b038381166001600160a01b0319831681178455604051919092169283917f8be0079c531659141344cd1fd0a4f28419497f9722a3daafe3b4186f6b6457e09190a35050565b60006109768284610d60565b9392505050565b60006109768284610d40565b604080516001600160a01b0385811660248301528416604482015260648082018490528251808303909101815260849091019091526020810180516001600160e01b03166323b872dd60e01b1790526109e39085906109e9565b50505050565b6000610a3e826040518060400160405280602081526020017f5361666545524332303a206c6f772d6c6576656c2063616c6c206661696c6564815250856001600160a01b0316610ac09092919063ffffffff16565b805190915015610abb5780806020019051810190610a5c9190610c70565b610abb5760405162461bcd60e51b815260206004820152602a60248201527f5361666545524332303a204552433230206f7065726174696f6e20646964206e6044820152691bdd081cdd58d8d9595960b21b606482015260840161031d565b505050565b6060610acf8484600085610ad7565b949350505050565b606082471015610b385760405162461bcd60e51b815260206004820152602660248201527f416464726573733a20696e73756666696369656e742062616c616e636520666f6044820152651c8818d85b1b60d21b606482015260840161031d565b843b610b865760405162461bcd60e51b815260206004820152601d60248201527f416464726573733a2063616c6c20746f206e6f6e2d636f6e7472616374000000604482015260640161031d565b600080866001600160a01b03168587604051610ba29190610ca4565b60006040518083038185875af1925050503d8060008114610bdf576040519150601f19603f3d011682016040523d82523d6000602084013e610be4565b606091505b5091509150610bf4828286610bff565b979650505050505050565b60608315610c0e575081610976565b825115610c1e5782518084602001fd5b8160405162461bcd60e51b815260040161031d9190610cc0565b600060208284031215610c49578081fd5b813561097681610dc1565b600060208284031215610c65578081fd5b813561097681610dd6565b600060208284031215610c81578081fd5b815161097681610dd6565b600060208284031215610c9d578081fd5b5035919050565b60008251610cb6818460208701610d7f565b9190910192915050565b6000602082528251806020840152610cdf816040850160208701610d7f565b601f01601f19169190910160400192915050565b6020808252818101527f4f776e61626c653a2063616c6c6572206973206e6f7420746865206f776e6572604082015260600190565b60008219821115610d3b57610d3b610dab565b500190565b600082610d5b57634e487b7160e01b81526012600452602481fd5b500490565b6000816000190483118215151615610d7a57610d7a610dab565b500290565b60005b83811015610d9a578181015183820152602001610d82565b838111156109e35750506000910152565b634e487b7160e01b600052601160045260246000fd5b6001600160a01b038116811461085c57600080fd5b801515811461085c57600080fdfea2646970667358221220a292d35c6b05287e7ffb2e41e885f731fcee311652e61b790b854d28ce31d50e64736f6c63430008020033",
  "immutableReferences": {},
  "source": "// SPDX-License-Identifier: MIT\r\npragma solidity ^0.8.2;\r\n\r\nimport \"@openzeppelin/contracts/access/Ownable.sol\";\r\nimport \"@openzeppelin/contracts/utils/math/SafeMath.sol\";\r\nimport \"@openzeppelin/contracts/security/ReentrancyGuard.sol\";\r\nimport \"@openzeppelin/contracts/token/ERC20/utils/SafeERC20.sol\";\r\nimport \"@openzeppelin/contracts/token/ERC20/IERC20.sol\";\r\n\r\ncontract Presale is Ownable, ReentrancyGuard {\r\n    using SafeMath for uint256;\r\n    using SafeERC20 for IERC20;\r\n\r\n    event Deposited(address indexed user, uint256 amount);\r\n    event PresaleEnabledUpdated(bool enabled);\r\n\r\n    IERC20 public satm;\r\n    \r\n    mapping(address => uint256) public deposits;\r\n\r\n    address[] public investors;\r\n\r\n    address public masterWallet;\r\n\r\n    uint256 public totalDepositedEthBalance;\r\n\r\n    uint256 public depositRate = 32; // Token price. i.e. 1 SATM = 32e-4 ETH\r\n\r\n    bool public presaleEnabled = false;\r\n\r\n    constructor(\r\n        IERC20 _satm,\r\n        address _masterWallet\r\n    ) {\r\n        require(address(_satm) != address(0), \"SATM address should not be zero address\");\r\n        require(_masterWallet != address(0), \"Master wallet address should not be zero address\");\r\n        \r\n        satm = _satm;\r\n        masterWallet = _masterWallet;\r\n   }\r\n\r\n    function depositedUserCount() public view returns (uint256) {\r\n        return investors.length;\r\n    }\r\n    \r\n    function updatePresaleRate(uint256 rate) public onlyOwner {\r\n        require(rate > 0, \"UpdateSwapRate: Rate is less than Zero\");\r\n        depositRate = rate;\r\n    }\r\n\r\n    function setPresaleEnabled(bool _enabled) public onlyOwner {\r\n        presaleEnabled = _enabled;\r\n        emit PresaleEnabledUpdated(_enabled);\r\n    }\r\n\r\n    function deposit() public payable nonReentrant {\r\n        // Get the ether amount that investor sent to this function\r\n        uint256 ethAmount = msg.value;\r\n\r\n        require(ethAmount > 0, \"Ether Amount is less than zero\");\r\n        require(presaleEnabled == true, \"Presale is not available\");\r\n\r\n        uint256 satmTokenAmount = ethAmount.mul(10 ** 5).div(depositRate);\r\n\r\n        // Send Ether to the master wallet\r\n        (bool success, ) = payable(masterWallet).call{value: ethAmount}(\"\");\r\n        require(success, \"Failed to send Ether\");\r\n        // Send SATM to the investor\r\n        satm.safeTransferFrom(masterWallet, msg.sender, satmTokenAmount);\r\n\r\n        totalDepositedEthBalance = totalDepositedEthBalance + ethAmount;\r\n\r\n        // Record the deposit amount for each investor\r\n        if (deposits[msg.sender] == 0) {\r\n            investors.push(msg.sender);\r\n        }\r\n        deposits[msg.sender] = deposits[msg.sender] + ethAmount;\r\n        \r\n        emit Deposited(msg.sender, ethAmount);\r\n    }\r\n\r\n    function updateSatmToken(IERC20 _satm) public onlyOwner {\r\n        require(address(_satm) != address(0), \"SATM token address should not be zero address\");\r\n        satm = _satm;\r\n    }\r\n\r\n    function updateMasterWalletAddress(address _newWalletAddress) public onlyOwner {\r\n        require(address(_newWalletAddress) != address(0), \"Master Wallet address should not be zero address\");\r\n        masterWallet = _newWalletAddress;\r\n    }\r\n}",
  "sourcePath": "E:\\Task\\20211210-Terramint\\project\\SATM-Presale-Contract\\contracts\\Presale.sol",
  "compiler": {
    "name": "solc",
    "version": "0.8.2+commit.661d1103.Emscripten.clang"
  },
  "schemaVersion": "3.4.4",
  "updatedAt": "2022-02-28T15:19:12.759Z",
  "devdoc": {
    "kind": "dev",
    "methods": {
      "owner()": {
        "details": "Returns the address of the current owner."
      },
      "renounceOwnership()": {
        "details": "Leaves the contract without owner. It will not be possible to call `onlyOwner` functions anymore. Can only be called by the current owner. NOTE: Renouncing ownership will leave the contract without an owner, thereby removing any functionality that is only available to the owner."
      },
      "transferOwnership(address)": {
        "details": "Transfers ownership of the contract to a new account (`newOwner`). Can only be called by the current owner."
      }
    },
    "version": 1
  },
  "userdoc": {
    "kind": "user",
    "methods": {},
    "version": 1
  }
}